:10000000022EF1020006C2AFD2AF3202290EC2AFF9
:10001000D2AF3202000E1233F21233DE2212330F4D
:0100200022BD
:070023000230FC12332F2212
:10002B0002340E12334E7F641231B37F1D1231B383
:10003B001233B312334E7F651231B312315E90918E
:10004B0029EFF012336912315E1233821233B390FF
:10005B009129E05402640260030200ED12334E7FDB
:10006B00641231B37F301231B3E4FF1231B3123368
:10007B00B312334E7F641231B37F1C1231B37F48FE
:10008B001231B3E4FF1231B37F401231B37F101240
:10009B0031B31233B312334E7F641231B37F10126C
:1000AB0031B3E4FF1231B3E4FF1231B3E4FF123189
:1000BB00B37F011231B37F011231B37F011231B320
:1000CB007F171231B31233B312334E7F641231B335
:1000DB007F1E1231B3E4FF1231B37F101231B31212
:0B00EB0033B32253BEF72243BE0822AD
:1000F800FFFF4457494E543542933500004293332D
:1001080000004193320041932E0041932F00429307
:10011800300000429339000042933700005A90693A
:100128003FC900690064000086000A2D2D203A3A74
:10013800000000000000000000005A90833FCC013E
:10014800270064000086000A2D2D2F3A3A0000008F
:10015800000000000000005A910F3FD001E5006444
:10016800000001E5006402AD007D001000171818BA
:1001780002000000603C90D3400040A04140401085
:1001880040B04150402040C04160403040D04170B4
:10019800404040E04180405040F041904060410084
:1001A80041A04070411041B04080412041C0409082
:1001B800413041D05490BF41E041F84210422842BA
:1001C8004042584270428842A042B84890B000006D
:1001D8000000000000004290B800004290BD0000FE
:1001E8004290BA00004190BC004190AF0042909DFF
:1001F8000005498000B2E2CAD4BABAD7D6006E6008
:10020800800949443030BBD8B7E7B8DFCEC2000018
:1002180000000000000000000000000000000000D6
:10022800000049443031BBD8B7E7B5CDCEC2000095
:1002380000000000000000000000000000000000B6
:10024800000049443032BBD8B7E7B8DFCAAA00007B
:100258000000000000000000000000000000000096
:10026800000049443033BBD8B7E7B8DFCAAA00005A
:100278000000000000000000000000000000000076
:10028800000049443034CBCDB7E7B8DFCEC2000018
:100298000000000000000000000000000000000056
:1002A800000049443035CBCDB7E7B5CDCEC200000C
:1002B8000000000000000000000000000000000036
:1002C800000049443036CBCDB7E7B8DFCAAA0000F2
:1002D8000000000000000000000000000000000016
:1002E800000049443037CBCDB7E7B5CDCAAA0000E6
:1002F80000000000000000000000000000000000F6
:10030800000049443038B1A3C1F4000000000000E7
:1003180000000000000000000000000000000000D5
:10032800000049443039C4DAB2BFCDA8D0C50000B6
:1003380000000000000000000000000000000000B5
:100348000000494431304E5443D2ECB3A3000000BE
:100358000000000000000000000000000000000095
:10036800000049443131B7E7BBFA31B9CAD5CF00EB
:100378000000000000000000000000000000000075
:10038800000049443132B7E7BBFA32B9CAD5CF00C9
:100398000000000000000000000000000000000055
:1003A800000049443133B7E7BBFA33B9CAD5CF00A7
:1003B8000000000000000000000000000000000035
:1003C800000049443134B7E7BBFA34B9CAD5CF0085
:1003D8000000000000000000000000000000000015
:1003E800000049443135B7E7BBFA35B9CAD5CF0063
:1003F80000000000000000000000000000000000F5
:10040800000049443136CDE2B7E7BBFAB9CAD5CFC7
:1004180000000000000000000000000000000000D4
:10042800000049443137B7E7BBFA31D4CBD0D0B359
:10043800ACCAB1000000000000000000000000008D
:10044800000049443138B7E7BBFA32D4CBD0D0B337
:10045800ACCAB1000000000000000000000000006D
:10046800000049443139B7E7BBFA33D4CBD0D0B315
:10047800ACCAB1000000000000000000000000004D
:10048800000049443230B7E7BBFA34D4CBD0D0B3FC
:10049800ACCAB1000000000000000000000000002D
:1004A800000049443231B7E7BBFA35D4CBD0D0B3DA
:1004B800ACCAB1000000000000000000000000000D
:1004C800000049443232CDE2B7E7BBFAD4CBD0D0F2
:1004D800B3ACCAB10000000000000000000000003A
:1004E800000049443233B8DFD1B931B8E6BEAF00B5
:1004F80000000000000000000000000000000000F4
:10050800000049443234B8DFD1B931CBF8CBC00050
:1005180000000000000000000000000000000000D3
:10052800000049443235B5CDD1B931B8E6BEAF0087
:1005380000000000000000000000000000000000B3
:10054800000049443236B5CDD1B931CBF8CBC00023
:100558000000000000000000000000000000000093
:10056800000049443237C5C5C6F8CEC2B6C831B84E
:10057800E6BEAF0000000000000000000000000020
:10058800000049443238C5C5C6F8CEC2B6C831CB1A
:10059800F8CBC000000000000000000000000000D0
:1005A800000049443239B6CCD6DCC6DA31B8E6BEEA
:1005B800AF00000000000000000000000000000084
:1005C800000049443330D1B9BBFA31D4CBD0D0B3D1
:1005D800ACCAB100000000000000000000000000EC
:1005E800000049443331B8DFD1B932B8E6BEAF00B4
:1005F80000000000000000000000000000000000F3
:10060800000049443332B8DFD1B932CBF8CBC0004F
:1006180000000000000000000000000000000000D2
:10062800000049443333B5CDD1B9D1B9C1A6B8E634
:10063800BEAF000000000000000000000000000045
:10064800000049443334B5CDD1B932CBF8CBC00022
:100658000000000000000000000000000000000092
:10066800000049443335C5C5C6F8CEC2B6C832B84D
:10067800E6BEAF000000000000000000000000001F
:10068800000049443336C5C5C6F8CEC2B6C832CB19
:10069800F8CBC000000000000000000000000000CF
:1006A800000049443337B6CCD6DCC6DA32B8E6BEE9
:1006B800AF00000000000000000000000000000083
:1006C800000049443338D1B9BBFA32D4CBD0D0B3C7
:1006D800ACCAB100000000000000000000000000EB
:1006E800000049443339BCD3CAAAC6F7B5E7C1F7F5
:1006F800B9FDB4F300000000000000000000000095
:10070800000049443430BCD3CAAAC6F7B8DFCBAE20
:10071800CEBB000000000000000000000000000048
:10072800000049443431BCD3CAAAC6F7C8B1CBAE1D
:1007380000000000000000000000000000000000B1
:10074800000049443432BCD3CAAAC6F7D4CBD0D0AF
:10075800B3ACCAB1000000000000000000000000B7
:10076800000049443433BCD3C8C8C6F7B8E6BEAFA6
:100778000000000000000000000000000000000071
:10078800000049443434BCD3C8C8C6F731B3ACCA36
:10079800B1000000000000000000000000000000A0
:1007A800000049443435BCD3C8C8C6F732B3ACCA14
:1007B800B100000000000000000000000000000080
:1007C800000049443436B6CFB5E7D6D8C6F40000A1
:1007D8000000000000000000000000000000000011
:1007E800000049443437B5E7D4B4CFE0D0F2B4EDD3
:1007F800CEF3000000000000000000000000000030
:10080800000049443438B5E7D4B4C6B5C2CAC6AB4B
:10081800B8DF000000000000000000000000000039
:10082800000049443439B5E7D4B4C6B5C2CAC6AB2A
:10083800B5CD00000000000000000000000000002E
:1008480000004944353041CFE0B9FDD1B90000007E
:100858000000000000000000000000000000000090
:1008680000004944353142CFE0B9FDD1B90000005C
:100878000000000000000000000000000000000070
:1008880000004944353243CFE0B9FDD1B92000001A
:100898000000000000000000000000000000000050
:1008A80000004944353341CFE0C7B7D1B900000053
:1008B8000000000000000000000000000000000030
:1008C80000004944353442CFE0C7B7D1B900000031
:1008D8000000000000000000000000000000000010
:1008E80000004944353543CFE0C7B7D1B90000000F
:1008F80000000000000000000000000000000000F0
:1009080000004944353641CFE0C8B1CFE0000000CF
:1009180000000000000000000000000000000000CF
:1009280000004944353742CFE0C8B1CFE0000000AD
:1009380000000000000000000000000000000000AF
:1009480000004944353843CFE0C8B1CFE00000008B
:10095800000000000000000000000000000000008F
:10096800000049443539C6F8C1F7B6AACAA7B8E69F
:10097800BEAF000000000000000000000000000002
:10098800000049443630B9FDC2CBCDF8D4CBD0D025
:10099800B3ACCAB100000000000000000000000075
:1009A800000049443631B9FDC2CBCDF8B6C2B8E62D
:1009B800BEAF0000000000000000000000000000C2
:1009C800000049443632D4B6B3CCB9D8BBFAB8E63D
:1009D800BEAF0000000000000000000000000000A2
:1009E800000049443633D2E7CBAEB8E6BEAF0000CC
:1009F80000000000000000000000000000000000EF
:100A0800000049443634C8BABFD8CDA8D0C5D2EC06
:100A1800B3A3000000000000000000000000000078
:100A2800000049443635B1E4C6B5C6F7B9CAD5CFD2
:100A380000000000000000000000000000000000AE
:100A4800000049443636D7A2CBAEB5E7B5BCC2CA1A
:100A5800B8DF0000000000000000000000000000F7
:100A6800000049443637D7A2CBAEB5E7B5BCC2CAF9
:100A7800B5CD0000000000000000000000000000EC
:100A8800000049443638D1CCCEEDB8E6BEAF000000
:100A9800000000000000000000000000000000004E
:100AA800000049443639D3C3BBA7D7D4B6A8D2E58A
:100AB800B8E6BEAF00000000000000000000000023
:100AC800000049443730B5E7D4B4D2ECB3A30000F2
:100AD800000000000000000000000000000000000E
:100AE800000049443731C8EBCBAEB8DFCEC20000B6
:100AF80000000000000000000000000000000000EE
:100B0800000049443732CBAEB7A7B9CAD5CF0000E9
:100B180000000000000000000000000000000000CD
:100B2800000049443733C5CCB9DCB6CFC1F7B8E6C5
:100B3800BEAF000000000000000000000000000040
:100B4800000049443734B7E7BBFA36B9CAD5CF00F5
:100B5800000000000000000000000000000000008D
:100B6800000049443735B7E7BBFA37B9CAD5CF00D3
:100B7800000000000000000000000000000000006D
:100B8800000049443736B7E7BBFA38B9CAD5CF00B1
:100B9800000000000000000000000000000000004D
:100BA800000049443737B7E7BBFA36B3ACCAB100DF
:100BB800000000000000000000000000000000002D
:100BC800000049443738B7E7BBFA37B3ACCAB100BD
:100BD800000000000000000000000000000000000D
:100BE800000049443739B7E7BBFA38B3ACCAB1009B
:100BF80000000000000000000000000000000000ED
:100C0800000049443830C5C5CBAEB8DFCBAECEBB4B
:100C180000000000000000000000000000000000CC
:100C2800000049443831BCD3CAAAC6F7D2ECB3A3F2
:100C380000000000000000000000000000000000AC
:100C4800000049443832B7E7D1B9B9FDB5CD000045
:100C5800000000000000000000000000000000008C
:100C6800000049443833BAECCDE2BCD3CAAAB9FD76
:100C7800C8C80000000000000000000000000000DC
:100C8800000049443834D1B9BBFA31B8DFD1B900D2
:100C9800000000000000000000000000000000004C
:100CA800000049443835B7E7BBFAB5E7C1F7B9FDE5
:100CB800B4F3000000000000000000000000000085
:100CC800000049443836B8A8C2B7C8EBCBAEB8DF85
:100CD800CEC200000000000000000000000000007C
:100CE800000049443837454556B8E6BEAF00000015
:100CF80000000000000000000000000000000000EC
:100D0800000049443838BDD3CBAEC5CCD2E7CBAE12
:100D180000000000000000000000000000000000CB
:100D2800000049443839C5C5C6F8B8DFCEC200004E
:100D380000000000000000000000000000000000AB
:100D4800000049443930C9E8B1B8CAB9D3C3B3AC13
:100D5800CAB1000000000000000000000000000010
:100D6800000049443931B1A3C1F40000000000007B
:100D7800000000000000000000000000000000006B
:100D8800000049443932B1A3C1F40000000000005A
:100D9800000000000000000000000000000000004B
:100DA800000049443933B1A3C1F400000000000039
:100DB800000000000000000000000000000000002B
:100DC800000049443934B1A3C1F400000000000018
:100DD800000000000000000000000000000000000B
:100DE800000049443935B1A3C1F4000000000000F7
:100DF80000000000000000000000000000000000EB
:100E0800000049443936B1A3C1F4000000000000D5
:100E180000000000000000000000000000000000CA
:100E2800000049443937BBD8B7E7CEC2CAAAB6C80A
:100E3800B4ABB8D0C6F70000000000000000000006
:100E4800000049443938CBCDB7E7CEC2CAAAB6C8E4
:100E5800B4ABB8D0C6F700000000000000000000E6
:100E6800000049443939BCD3CAAAB0E5D2ECB3A3CF
:100E7800000000000000000000000000000000006A
:100E880000004944313030C6C1C4BBD2D1CBF8B61A
:100E9800A8000000000000000000000000000000A2
:100EA80000004944313031D2BBCCECBDABCBF8B6F5
:100EB800A800000000000000000000000000000082
:100EC80000004944313032C8FDCCECBDABCBF8B69C
:100ED800A800000000000000000000000000000062
:100EE80000004944313033C6DFCCECBDABCBF8B69B
:100EF800A800000000000000000000000000000042
:100F080000004944313034CAAECEE5CCECBDABCBA1
:100F1800F8B6A80000000000000000000000000073
:100F280000004944313035C8FDCAAECCECBDABCB6E
:100F3800F8B6A80000000000000000000000000053
:100F480000004944313036B5E7D4B432CFE0D0F2AE
:100F5800B4ED0000000000000000000000000000E8
:100F680000004944313037B5E7D4B432C6B5C2CAF7
:100F7800B8DF0000000000000000000000000000D2
:100F880000004944313038B5E7D4B432C6B5C2CAD6
:100F9800B5CD0000000000000000000000000000C7
:100FA80000004944313039B5E7D4B43241CFE0B913
:100FB800FDD1B900000000000000000000000000A2
:100FC80000004944313130B5E7D4B43242CFE0B9FA
:100FD800FDD1B90000000000000000000000000082
:100FE80000004944313131B5E7D4B43243CFE0B9D8
:100FF800FDD1B90000000000000000000000000062
:1010080000004944313132B5E7D4B43241CFE0C7AA
:10101800B7D1B90000000000000000000000000087
:1010280000004944313133B5E7D4B43242CFE0C788
:10103800B7D1B90000000000000000000000000067
:1010480000004944313134B5E7D4B43243CFE0C766
:10105800B7D1B90000000000000000000000000047
:10106800000041933B00479305000000000000008A
:10107800489314000000000000000048930C000092
:1010880000000000000042931E0000429320000070
:1010980042931C000044932A00000000429322005F
:1010A800004493240000000002080000040B000024
:1010B80000004293280000010A0061008E6900C107
:1010C800814001C0804101C0804100C1814001C010
:1010D800804100C1814000C1814001C0804101C000
:1010E800804100C1814000C1814001C0804100C1F0
:1010F800814001C0804101C0804100C1814001C0E0
:10110800804100C1814000C1814001C0804100C1CF
:10111800814001C0804101C0804100C1814000C1BF
:10112800814001C0804101C0804100C1814001C0AF
:10113800804100C1814000C1814001C0804101C09F
:10114800804100C1814000C1814001C0804100C18F
:10115800814001C0804101C0804100C1814000C17F
:10116800814001C0804101C0804100C1814001C06F
:10117800804100C1814000C1814001C0804100C15F
:10118800814001C0804101C0804100C1814001C04F
:10119800804100C1814000C1814001C0804101C03F
:1011A800804100C1814000C1814001C0804100C12F
:1011B800814001C0804101C0804100C1814061007F
:1011C8008F6900C0C101C30302C2C60607C705C5AF
:1011D800C404CC0C0DCD0FCFCE0E0ACACB0BC90957
:1011E80008C8D81819D91BDBDA1A1EDEDF1FDD1D67
:1011F8001CDC14D4D515D71716D6D21213D311D197
:10120800D010F03031F133F3F23236F6F737F535E6
:1012180034F43CFCFD3DFF3F3EFEFA3A3BFB39F916
:10122800F83828E8E929EB2B2AEAEE2E2FEF2DEDE6
:10123800EC2CE42425E527E7E62622E2E323E12156
:1012480020E0A06061A163A3A26266A6A767A56566
:1012580064A46CACAD6DAF6F6EAEAA6A6BAB69A9D6
:10126800A86878B8B979BB7B7ABABE7E7FBF7DBDE6
:10127800BC7CB47475B577B7B67672B2B373B17116
:1012880070B05090915193535292965657975595E6
:1012980094549C5C5D9D5F9F9E5E5A9A9B5B995996
:1012A8005898884849894B8B8A4A4E8E8F4F8D4D66
:1012B8004C8C4484854587474686824243834181D6
:1012C80080404192800041927F00449301000000D9
:1012D8000041927A0044927B00000000419279001C
:1012E80058926100000000000000000000000000AB
:1012F80000000000000000000000005892410000BB
:101308000000000000010000000200027360000AF3
:101318002D080007ED6541923DFF606491D90000FA
:101328000100020003000400050006000700080091
:1013380009000A000B000C000D000E000F01100040
:1013480011001202130014001500160017001800EF
:1013580019001A001B021C001D001E001F0020009F
:10136800210022002300240025002602270028004F
:1013780029002A002B002C002D002E002F033000FE
:101388003100489259000101030203030542923FCC
:1013980000004291D700004291D400004191D6004C
:1013A80000E709F608DFFA8046E709F208DFFA8065
:1013B8003E88828C83E709F0A3DFFA8032E309F6DE
:1013C80008DFFA8078E309F208DFFA807088828CF7
:1013D80083E309F0A3DFFA806489828A83E0A3F6B5
:1013E80008DFFA805889828A83E0A3F208DFFA804E
:1013F8004C80D280FA80C680D4806980F2803380A5
:101408001080A680EA809A80A880DA80E280CA806C
:101418003389828A83ECFAE493A3C8C582C8CCC511
:1014280083CCF0A3C8C582C8CCC583CCDFE9DEE78E
:10143800800D89828A83E493A3F608DFF9ECFAA980
:10144800F0EDFB2289828A83ECFAE0A3C8C582C842
:10145800CCC583CCF0A3C8C582C8CCC583CCDFEA91
:10146800DEE880DB89828A83E493A3F208DFF980CF
:10147800CC88F0EF60010E4E60C388F0ED2402B412
:10148800040050B9F582EB2402B4040050AF2323C2
:101498004582239013F973BB010689828A83E0226F
:1014A8005002E722BBFE02E32289828A83E4932268
:1014B800BB010CE58229F582E5833AF583E02250E9
:1014C80006E92582F8E622BBFE06E92582F8E22233
:1014D800E58229F582E5833AF583E49322BB010688
:1014E80089828A83F0225002F722BBFE01F322EFA1
:1014F8008DF0A4A8F0CF8CF0A428CE8DF0A42EFEF9
:1015080022BC000BBE0029EF8DF084FFADF022E471
:10151800CCF875F008EF2FFFEE33FEEC33FCEE9DB0
:10152800EC984005FCEE9DFE0FD5F0E9E4CEFD22D7
:10153800EDF8F5F0EE8420D21CFEADF075F008EF62
:101548002FFFED33FD4007985006D5F0F222C398DF
:10155800FD0FD5F0EA22C5F0F8A3E028F0C5F0F8B1
:10156800E582158270021583E038F022A3F8E0C501
:10157800F025F0F0E582158270021583E0C838F096
:10158800E822BB010A89828A83E0F5F0A3E02250B1
:101598000687F009E71922BBFE07E3F5F009E3190E
:1015A8002289828A83E493F5F074019322BB010AAD
:1015B80089828A83F0E5F0A3F0225006F709A7F0A4
:1015C8001922BBFE06F3E5F009F31922EF2BFFEE13
:1015D8003AFEED39FDEC38FC2275F008758200EF13
:1015E8002FFFEE33FECD33CDCC33CCC58233C5824D
:1015F8009BED9AEC99E58298400CF582EE9BFEED06
:101608009AFDEC99FC0FD5F0D6E4CEFBE4CDFAE4D4
:10161800CCF9A88222B800C1B90059BA002DEC8BC8
:10162800F084CFCECDFCE5F0CBF97818EF2FFFEEA4
:1016380033FEED33FDEC33FCEB33FB10D70399405D
:1016480004EB99FB0FD8E5E4F9FA227818EF2FFF9D
:10165800EE33FEED33FDEC33FCC933C910D7059BDF
:10166800E99A4007EC9BFCE99AF90FD8E0E4C9FA3B
:10167800E4CCFB2275F010EF2FFFEE33FEED33FDC7
:10168800CC33CCC833C810D7079BEC9AE899400AEA
:10169800ED9BFDEC9AFCE899F80FD5F0DAE4CDFB68
:1016A800E4CCFAE4C8F922EB9FF5F0EA9E42F0E9AF
:1016B8009D42F0EC6480C864809845F022EB9FF569
:1016C800F0EA9E42F0E99D42F0E89C45F022E8608D
:1016D80010ECA2E713FCED13FDEE13FEEF13FFD899
:1016E800F022E0FCA3E0FDA3E0FEA3E0FF22E0F887
:1016F800A3E0F9A3E0FAA3E0FB22ECF0A3EDF0A34A
:10170800EEF0A3EFF022A8828583F0D083D0821276
:101718001725121725121725121725E473E493A32A
:10172800C583C5F0C583C8C582C8F0A3C583C5F005
:10173800C583C8C582C822A42582F582E5F0358311
:10174800F58322E0FBA3E0FAA3E0F922F8E0FBA38B
:10175800A3E0F925F0F0E582158270021583E0FA1E
:1017680038F022EBF0A3EAF0A3E9F022D083D0828C
:10177800F8E4937012740193700DA3A393F87401A5
:1017880093F5828883E4737402936860EFA3A3A33C
:1017980080DFD083D082F8E4937012740193700DC7
:1017A800A3A393F8740193F5828883E47374029376
:1017B800B5F0067403936860E9A3A3A3A380D8E3F4
:1017C800F5F009E208B5F06BDFF58067E3F5F0099D
:1017D800E608B5F05EDFF5805A87F009E608B5F04F
:1017E80052DFF6804E87F009E208B5F046DFF68052
:1017F8004288828C8387F009E0A3B5F036DFF68053
:101808003288828C8387F009E493A3B5F025DFF54D
:10181800802188828C83E3F5F009E0A3B5F014DF1A
:10182800F5801088828C83E3F5F009E493A3B5F082
:1018380002DFF40218F6808780E9809080D4803E29
:101848008015806E807E809D80B7808D80A38051BA
:101858008074803C02190289828A83ECFAE493F549
:10186800F0A3C8C582C8CCC583CCE493A3C8C582FD
:10187800C8CCC583CCB5F076DFE3DEE18070898221
:101888008A83E493F5F0A3E208B5F062DFF4805EA2
:1018980089828A83E0F5F0A3E608B5F051DFF58088
:1018A8004D89828A83E0F5F0A3E208B5F040DFF5C0
:1018B800803C89828A83E493F5F0A3E608B5F02E8C
:1018C800DFF4802A8002805789828A83ECFAE493C5
:1018D800F5F0A3C8C582C8CCC583CCE0A3C8C5822F
:1018E800C8CCC583CCB5F006DFE4DEE280007FFF1C
:1018F800B5F0020F2240027F012289828A83ECFA26
:10190800E0F5F0A3C8C582C8CCC583CCE0A3C8C5A0
:1019180082C8CCC583CCB5F0D5DFE5DEE380CF89BE
:10192800828A83ECFAE0F5F0A3C8C582C8CCC583E7
:10193800CCE493A3C8C582C8CCC583CCB5F0AFDFCF
:10194800E4DEE280A988F0EF60010E4E60ABED2482
:1019580002B404005098F582EB2402B40400508EBF
:10196800232345822390183E73EF4E6012EF6001E7
:101978000EEDBB010B89828A83F0A3DFFCDEFA221D
:1019880089F05007F709DFFCA9F022BBFEFCF30938
:10199800DFFCA9F022F8BB010DE58229F582E58379
:1019A8003AF583E8F0225006E92582C8F622BBFE04
:1019B80005E92582C8F2227BFF7A34791578647CA0
:1019C800917D017E007F3E1214797BFF7A34795332
:1019D80078A37C917D017E007F241214797B017AA3
:1019E8009179649091D0E4F0A3743EF07F207EABAF
:1019F800122269E49091A2F09091A2E0C39410742D
:101A08008094804003021C60E0FF7E007401A807F8
:101A1800088005C333CE33CED8F9FF90916AE0FC35
:101A2800A3E0FDEE5CFEEF5D4E7003021C44909156
:101A3800A2E0FF7E007401A807088005C333CE33F7
:101A4800CED8F9FF90916EE0FCA3E0FDEE5CFEEFCE
:101A58005D4E7003021BF19091A2E0FF1313543FF7
:101A68002407FFE4339091C9F0A3EFF09091C9E007
:101A7800FEA3E025E0FFEE33FE74642FF582749137
:101A88003EF583E0FEA3E0FF9091A2E0540325E039
:101A980025E0FDEFA805088005CEC313CE13D8F9BD
:101AA800540FFF9091C7E4F0A3EFF09091C7E0FEC8
:101AB800A3E08EF012179A1AE300001AFB00011B2C
:101AC8001300021B2B00041B4200051B5900061BB8
:101AD8007000081B87000900001B9E9091A2E0255A
:101AE800E024A3F582E43491F583E4F0A37405F0CF
:101AF800021BB39091A2E025E024A3F582E434917F
:101B0800F583E4F0A37406F0021BB39091A2E025DC
:101B1800E024A3F582E43491F583E4F0A37407F09C
:101B2800021BB39091A2E025E024A3F582E434914E
:101B3800F583E4F0A37408F080719091A2E025E0A9
:101B480024A3F582E43491F583E4F0A37409F080CA
:101B58005A9091A2E025E024A3F582E43491F5831C
:101B6800E4F0A3740AF080439091A2E025E024A356
:101B7800F582E43491F583E4F0A37403F0802C90AB
:101B880091A2E025E024A3F582E43491F583E4F002
:101B9800A37404F080159091A2E025E024A3F582B7
:101BA800E43491F583E4F0A37405F09091A2E0FF8A
:101BB8007E007401A807088005C333CE33CED8F958
:101BC800FF909166E0FCA3E0FDEE5CFEEF5D4E60E9
:101BD8007E9091A2E025E024A3F582E43491F58378
:101BE800E475F00812155E80669091A2E0FF7E0011
:101BF8007401A807088005C333CE33CED8F9FF9007
:101C08009166E0FCA3E0FDEE5CFEEF5D4E60179090
:101C180091A2E025E024A3F582E43491F583E4F071
:101C2800A37402F080299091A2E025E024A3F58214
:101C3800E43491F583E4F0A304F080139091A2E0DA
:101C480025E024A3F582E43491F583E4F0A3F09031
:101C580091A2E004F0021A009091A27410F0909101
:101C6800A2E0C39412748094804003021ED1E02441
:101C7800F0FF7E007401A807088005C333CE33CE79
:101C8800D8F9FF90916CE0FCA3E0FDEE5CFEEF5DFF
:101C98004E7003021EB59091A2E024F0FF7E0074FE
:101CA80001A807088005C333CE33CED8F9FF909139
:101CB80070E0FCA3E0FDEE5CFEEF5D4E7003021EDB
:101CC800609091A2E0FF1313543F2407FFE4339080
:101CD80091C9F0A3EFF09091C9E0FEA3E025E0FFE1
:101CE800EE33FE74642FF58274913EF583E0FEA313
:101CF800E0FF9091A2E0540325E025E0FDEFA80560
:101D0800088005CEC313CE13D8F9540FFF9091C79E
:101D1800E4F0A3EFF09091C7E0FEA3E08EF0121775
:101D28009A1D4D00001D6500011D7D00021D9500D6
:101D3800041DAC00051DC300061DDA00081DF100D6
:101D48000900001E089091A2E025E024A3F582E492
:101D58003491F583E4F0A37405F0021E1D9091A25E
:101D6800E025E024A3F582E43491F583E4F0A3743C
:101D780006F0021E1D9091A2E025E024A3F582E45E
:101D88003491F583E4F0A37407F0021E1D9091A22C
:101D9800E025E024A3F582E43491F583E4F0A3740C
:101DA80008F080719091A2E025E024A3F582E43444
:101DB80091F583E4F0A37409F0805A9091A2E0258C
:101DC800E024A3F582E43491F583E4F0A3740AF0E7
:101DD80080439091A2E025E024A3F582E43491F5B4
:101DE80083E4F0A37403F0802C9091A2E025E02412
:101DF800A3F582E43491F583E4F0A37404F080152C
:101E08009091A2E025E024A3F582E43491F583E4DF
:101E1800F0A37405F09091A2E024F0FF7E00740115
:101E2800A807088005C333CE33CED8F9FF90916850
:101E3800E0FCA3E0FDEE5CFEEF5D4E7003021EC801
:101E48009091A2E025E024A3F582E43491F583E49F
:101E580075F00812155E80689091A2E024F0FF7E6C
:101E6800007401A807088005C333CE33CED8F9FF24
:101E7800909168E0FCA3E0FDEE5CFEEF5D4E60171C
:101E88009091A2E025E024A3F582E43491F583E45F
:101E9800F0A37402F080299091A2E025E024A3F534
:101EA80082E43491F583E4F0A304F080139091A2C6
:101EB800E025E024A3F582E43491F583E4F0A3F06F
:101EC8009091A2E004F0021C667B017A9179A390BC
:101ED80091D0E4F0A37424F07FA07EAB1224D62224
:101EE800E50F30E0167B017A9379359091D0E4F0D4
:101EF800A37402F07F147E00122269E50F30E2031A
:101F08001232BDE50F20E303022268909335E0FE0C
:101F1800A3E04E6003021FA7909129F0A3F07B0174
:101F28007A9179299091D0F0A37402F07F217EA054
:101F3800122269909333E0FEA3E064014E60129090
:101F48009129E0FEA3E064014E7006909332E0040C
:101F5800F0909333E0FEA3E064024E601390912961
:101F6800E0FEA3E064024E7007909332E02402F092
:101F7800909333E0FEA3E064034E6013909129E050
:101F8800FEA3E064034E7007909332E02404F090BF
:101F98009129E0FEA3E0FF909333EEF0A3EFF090D9
:101FA8009335E0FEA3E0640B4E70031219BF9093C3
:101FB80035E0FEA3E064294E60030220977B017A96
:101FC80091792C9091D0F0A3741CF07FB07EC91247
:101FD8002269E4909129F0909129E0C394077480D4
:101FE80094804003022081E025E025E0242CF5823E
:101FF800E43491F583E0FEA3E0C4F8540FC868FD0B
:10200800EEC454F048FC909129E025E025E0242E08
:10201800F582E43491F583E0FEA3E0EEC4540F2D7D
:10202800FFE43C90912AF0A3EFF090912AE0FEA300
:10203800E0FF7C007D18121509909129E025E02425
:1020480048F582E43491F583EEF0A3EFF090912AFD
:10205800E0FEA3E0FF7C007D18121509909129E0AD
:1020680025E02456F582E43491F583ECF0A3EDF0F5
:10207800909129E004F0021FDF7B017A9179489062
:1020880091D0E4F0A3741CF07F207EC91224D6906E
:102098009335E0FEA3E0642C4E600302212D7B0102
:1020A8007A91792F9091D0F0A37402F07FA07ECC22
:1020B80012226990912FE0FEA3E0FFEEC4F854F0DD
:1020C800C868FEEFC4540F48EE540F909129F0A34E
:1020D800E4F0909129E0FCA3E0FD90912FE0FEA3AD
:1020E800E07807CEC313CE13D8F9541FFFECFEEDEA
:1020F8004FFF909129EEF0A3EFF090912FE0A3E02D
:10210800547F90912BF0A3E4F0A304F0A304F07B98
:10211800017A9179299091D0E4F0A37406F07F2098
:102128007ECC1224D6909335E0FEA3E064274E704F
:102138005690932EE0C394057480948050429091F9
:1021480029E4F0A304F0FB7A9179299091D0E4F086
:10215800A37402F07F257EA01224D6909129E4F082
:10216800A3745AF07B017A9179299091D0E4F0A375
:102178007402F07F857EA01224D690932EE004F09E
:10218800E490932FF0805390932FE0C394057480CC
:1021980094805041E4909129F0A3F07B017A9179E1
:1021A800299091D0F0A37402F07F257EA01224D646
:1021B800909129E4F0A3745AF07B017A91792990DF
:1021C80091D0E4F0A37402F07F857EA01224D6900B
:1021D800932FE004F0E490932EF07B017A91792913
:1021E8009091D0E4F0A37402F07F167E0012226969
:1021F800909129E0FEA3E04E6024E4909129F0A399
:10220800F07B017A9179299091D0F0A37402F07F44
:10221800167E001224D6E4909330F0A3F022909317
:1022280030E0FEA3E0C39458EE9402500B90933034
:10223800E475F00112155E22909330E0FEA3E0B43D
:10224800581EEEB4021A909330E475F00112155E30
:10225800909335E0FEA3E04E6006E4FFFE123206DE
:10226800229091CBEEF0A3EFF0A312176B7B007ACC
:10227800007900C003C002C0019091CD12174BD065
:1022880082D083D0E06B7008E965827003EA6583C9
:1022980070030224D59091D0E0FEA3E04E700302B3
:1022A80024D59091D0E0A3E0FFEEC313FEEF13FF17
:1022B8009091CBE0FCA3E02FFFEE3CFED3EF94FE21
:1022C800EE94FF40030224D5C2AF9091CBE0A3E087
:1022D80054019091D2F09091CBE0FEA3E0FFEEC3C1
:1022E80013FEEF13FF9091CBEEF0A3EFF09091CB9C
:1022F800E0FEA3E07810CEC313CE13D8F9F5F19021
:1023080091CBE0FEA3E0EEF5F29091CBE0A3E0F5EF
:10231800F3E4F5F875F401D2FF30FCFDD2FD90919D
:10232800D2E0640170729091D0E0FEA3E064014EA7
:10233800700AC2FBC2FAD2F9C2F88008C2FBC2FA1C
:10234800D2F9D2F8D2FE20FEFD9091D0E0FEA3E0B3
:1023580064014E701A9091CD75F001121754E5FC86
:102368001214E59091D074FFF5F012155E80299053
:1023780091CDE475F001121754E5FC1214E5909123
:10238800CDE475F001121754E5FD1214E59091D0D3
:1023980074FF75F0FE12155E9091D0E0FEA3E04E3A
:1023A80070030224D09091D0E0A3E0C39404EE948B
:1023B8000040030224799091D0E0A3E08EF0121738
:1023C8009A23ED000123E3000223D9000300002330
:1023D800F5D2FBD2FAD2F9C2F88012D2FBD2FAC2F5
:1023E800F9C2F88008D2FBC2FAC2F9C2F8D2FE20BC
:1023F800FEFD9091D0E0FEA3E08EF012179A2466BD
:1024080000012446000224160003000024D0909105
:10241800CDE475F001121754E5FA1214E59091CD48
:10242800E475F001121754E5FB1214E59091CDE420
:1024380075F001121754E5FC1214E50224D09091AE
:10244800CDE475F001121754E5FA1214E59091CD18
:10245800E475F001121754E5FB1214E5806A9091B7
:10246800CDE475F001121754E5FA1214E58059808D
:1024780057D2FBD2FAD2F9D2F8D2FE20FEFD9091C3
:10248800CDE475F001121754E5FA1214E59091CDD8
:10249800E475F001121754E5FB1214E59091CDE4B0
:1024A80075F001121754E5FC1214E59091CDE4750E
:1024B800F001121754E5FD1214E59091D074FF75E0
:1024C800F0FC12155E0223A0E4F5F8D2AF22909139
:1024D800CBEEF0A3EFF0A312176B7B007A00790024
:1024E800C003C002C0019091CD12174BD082D08397
:1024F800D0E06B7008E965827003EA6583700302B7
:1025080027419091D0E0FEA3E04E7003022741904E
:1025180091D0E0A3E0FFEEC313FEEF13FF9091CB41
:10252800E0FCA3E02FFFEE3CFED3EF94FEEE94FF19
:102538004003022741C2AF9091CBE0A3E054019041
:1025480091D2F09091CBE0FEA3E0FFEEC313FEEF33
:1025580013FF9091CBEEF0A3EFF09091CBE0FEA3A8
:10256800E07810CEC313CE13D8F9F5F19091CBE0F3
:10257800FEA3E0EEF5F29091CBE0A3E0F5F3E4F5ED
:10258800F875F401D2FF30FCFDC2FD9091D2E064F1
:102598000170729091D0E0FEA3E064014E700AC20F
:1025A800FBC2FAD2F9C2F88008C2FBC2FAD2F9D249
:1025B800F89091D0E0FEA3E064014E701A9091CD9E
:1025C80075F00112175412149FF5FC9091D074FF06
:1025D800F5F012155E80299091CDE475F00112177F
:1025E8005412149FF5FC9091CDE475F00112175424
:1025F80012149FF5FD9091D074FF75F0FE12155ED0
:10260800D2FE20FEFD9091D0E0FEA3E04E700302C2
:10261800273C9091D0E0A3E0C39404EE94004003DB
:102628000226E59091D0E0A3E08EF012179A265A80
:102638000001265000022646000300002662D2FB55
:10264800D2FAD2F9C2F88012D2FBD2FAC2F9C2F891
:102658008008D2FBC2FAC2F9C2F89091D0E0FEA37A
:10266800E08EF012179A26CD000126AD0002267ED4
:102678000003000026DC9091CDE475F00112175498
:1026880012149FF5FA9091CDE475F00112175412C7
:10269800149FF5FB9091CDE475F0011217541214B4
:1026A8009FF5FC802F9091CDE475F001121754121C
:1026B800149FF5FA9091CDE475F001121754121495
:1026C8009FF5FB800F9091CDE475F001121754121D
:1026D800149FF5FAD2FE30FE5B80FB8057D2FBD206
:1026E800FAD2F9D2F89091CDE475F001121754128C
:1026F800149FF5FA9091CDE475F001121754121455
:102708009FF5FB9091CDE475F00112175412149FB8
:10271800F5FC9091CDE475F00112175412149FF551
:10272800FDD2FE20FEFD9091D074FF75F0FC1215CD
:102738005E02260DE4F5F8D2AF2290912912176BAC
:1027480090912CECF0A3EDF0E4A3F0A3F090912C81
:10275800E0FEA3E0FFA3E0FCA3E0C39FEC9E500CC7
:1027680090912EE475F00112155E80E190912CE0B5
:10277800FEA3E0C39408EE9400500302290DE4A3DD
:10278800F0A3F090912912174B90912EE0FEA3E050
:10279800F5828E831214B8640160030228E79091D1
:1027A8002912174B90912EE0A3E029F9EA3EFA90FE
:1027B80000011214B812177428E70328E70627D077
:1027C80010000028E70228E790912912174B9091F2
:1027D8002EE0FEA3E029F9EA3EFA9000061214B8AA
:1027E800FF909132E4F0A3EFF090912EE0A3E0FF88
:1027F800909132E0FCA3E02FFFEC3EFEEF2409FFAE
:10280800E43EFE90912CE0FCA3E0FDD3EF9DEE9C0E
:10281800401190912CE0FEA3E0FFA3EEF0A3EFF0AF
:102828000228E790912912174B90912EE0FEA3E021
:1028380029F9EA3EFA909132E0FEA3E02409FDE48A
:102848003EFC123019909130EEF0A3EFF0909130E9
:10285800E0FEA3E04E60030228E790912912174B8F
:1028680090912EE0FEA3E029F9EA3EFA90000212C8
:1028780014B8FE90912912174B90912EE0FCA3E01A
:1028880029F9EA3CFA9000031214B8FDEEEDFF9026
:10289800912912174B90912EE0A3E029F9EA3CFA0E
:1028A800E92407F9E43AFAC003C002C0019091296B
:1028B80012174B9000021214B8FD9091D0E4F0A3C7
:1028C800EDF0D001D002D0031224D6909132E0FE70
:1028D800A3E02409FFE43E90912E8FF012155E903C
:1028E800912EE475F00112155E90912CE0FEA3E0A4
:1028F80024FBFFEE34FFFEA3E0FCA3E0C39FEC9EA5
:10290800500302278B22C0E0C0F0C083C082C0D031
:1029180075D000C000C001C002C003C004C005C01B
:1029280006C007C2AF758CBC758ACD90931EE4753E
:10293800F00112155E90931EE0FEA3E0D394E8EE3A
:102948009403401890931EE4F0A3F0A375F00112CD
:10295800155E90931CE475F00112155E43C9019051
:10296800932A1216EAE47B01FAF9F81215D4909327
:102978002A121702909322E475F00112155E9093C3
:10298800241216EAE4F81215D49093241217029030
:102998009328E0FEA3E0FFE4FCFD7BDC7AFFF8D39C
:1029A8001216AF400A909328E475F00112155E05DF
:1029B80009E50970020508AF0EAE0DAD0CAC0BE4CD
:1029C8007B01FAF9F81215D48F0E8E0D8D0C8C0B35
:1029D800E47B6412161DAC00AD01AE02AF03EC4DF2
:1029E8004E4F7011AF0EAE0DAD0CAC0BEC4D4E4F03
:1029F8006003430A02E47BFAFAF9F8AF0EAE0DADB4
:102A08000CAC0B12161DAC00AD01AE02AF03EC4DC1
:102A18004E4F7011AF0EAE0DAD0CAC0BEC4D4E4FD2
:102A28006003430A04E47BF47A01F9F8AF0EAE0DB3
:102A3800AD0CAC0B12161DAC00AD01AE02AF03EC31
:102A48004D4E4F7011AF0EAE0DAD0CAC0BEC4D4EA4
:102A58004F6003430A08430A01D2AFD007D006D01B
:102A680005D004D003D002D001D000D0D0D082D07D
:102A780083D0F0D0E032909137EFF0A3EDF0A3EBE4
:102A8800F0E4909144F0A3F0909137E024D0FFE473
:102A98003407909144F0A3EFF0909144E0FEA3E056
:102AA800FF7C007D6412150990913AECF0A3EDF0DB
:102AB800909144E0FEA3E0FF7C007D64121509902C
:102AC800913CEEF0A3EFF0909138E0FF90913EE456
:102AD800F0A3EFF0909139E0FF909140E4F0A3EF7C
:102AE800F090913EE0FEA3E064014E600B90913EB1
:102AF800E0A3E064024E701490913A74FFF5F0126E
:102B0800155E90913EE475F00C12155E90913AE0D6
:102B1800FEA3E07802CEC313CE13D8F9FF90913A02
:102B2800E0FCA3E02FFDEE3CFCA3E0FEA3E078026E
:102B3800CEC313CE13D8F92DFDEC3EFC90913CE0AA
:102B4800FEA3E025E0FFEE33FEC3ED9FFBEC9EFA0B
:102B5800A3E0FEA3E02401FFE43EFE7C007D0D120D
:102B680014F77D05121509EF2BFFEE3AFEA3E0FCE2
:102B7800A3E02FFFEE3CFEEF24FFFFEE34FFA3F0AF
:102B8800A3EFF0909142E0FEA3E0C3EE9400500C56
:102B9800909142E475F00712155E80E7909142E04B
:102BA800FEA3E0FF7C007D07121509909142ECF02E
:102BB800A3EDF0909142E0A3E0FF2212334E7F6430
:102BC8001231B37F101231B31233B312334E7F6513
:102BD8001231B39091317406F0909131E0D39400A2
:102BE80074809480401D12315E909131E02429F563
:102BF80082E43491F583EFF0123369909131E01457
:102C0800F080D612315E909129EFF01233821233A0
:102C1800B3E4909131F0909131E0C39403748094BF
:102C280080504BE02429F582E43491F583E0FFC419
:102C3800540F909132F0909131E02429F582E434D8
:102C480091F583E0540F909133F0909132E075F054
:102C58000AA4FFA3E02FFF909131E02429F582E434
:102C68003491F583EFF0909131E004F080A89091D1
:102C7800317404F0909131E0C394077480948050CB
:102C88004BE02429F582E43491F583E0FFC4540F26
:102C9800909132F0909131E02429F582E43491F555
:102CA80083E0540F909133F0909132E075F00AA4CC
:102CB800FFA3E02FFF909131E02429F582E43491BD
:102CC800F583EFF0909131E004F080A8909129E02D
:102CD800FFA3E0FDA3E0FB122A7E90912CEFF07B8E
:102CE800017A9179299091D0E4F0A37408F07F10CB
:102CF8007E001224D622E4909136F07B017A9379F3
:102D0800149091D0F0A37408F07F9C7E0012226981
:102D1800909314E0645A6003022E19A3E064A5603E
:102D280003022E199091317402F0909131E0C3940E
:102D38000874809480504EE02414F582E43493F5AE
:102D480083E075F00A84909132F0909131E0241478
:102D5800F582E43493F583E075F00A84909133E5C5
:102D6800F0F0909132E0C454F0FFA3E02FFF90916F
:102D780031E02429F582E43491F583EFF090913124
:102D8800E004F080A590912BE090930CF090912CAA
:102D9800E090930DF090912DE090930EF090912E8D
:102DA800E0909310F090912FE0909311F090913073
:102DB800E0909312F0909316E0FFA3E0FDA3E0FBF0
:102DC800122A7E909135EFF0E4909134F0A3E090D0
:102DD800930FF090913575F00A84909132F09091AC
:102DE80035E075F00A84909133E5F0F07B017A9331
:102DF800790C122E1AE4909314F0A3F07B017A93C5
:102E080079149091D0F0A37408F07F9C7E0012246E
:102E1800D62290913712176B12334E7F641231B35A
:102E28007F301231B3E4FF1231B31233B312334E91
:102E38007F641231B37F1C1231B37F481231B3E47F
:102E4800FF1231B37F401231B37F101231B3123306
:102E5800B312334E7F641231B37F101231B39091A5
:102E68003712174B9000061214B8FF1231B3909125
:102E78003712174B9000051214B8FF1231B3909116
:102E88003712174B9000041214B8FF1231B3909107
:102E98003712174B9000031214B8FF1231B39091F8
:102EA8003712174B9000021214B8FF1231B39091E9
:102EB8003712174B9000011214B8FF1231B39091DA
:102EC8003712174B12149FFF1231B31233B3123358
:102ED8004E7F641231B37F1E1231B3E4FF1231B357
:102EE8007F101231B31233B32275940175950275B0
:102EF8008E0075930075C87075C96075F800787F85
:102F0800E4F6D8FD758110022F4D023094E493A3A6
:102F1800F8E493A34003F68001F208DFF48029E483
:102F280093A3F85407240CC8C333C4540F4420C8CF
:102F3800834004F456800146F6DFE4800B01020466
:102F48000810204080900100E47E019360BCA3FF3C
:102F5800543F30E509541FFEE493A360010ECF549B
:102F6800C025E060A840B8E493A3FAE493A3F8E48A
:102F780093A3C8C582C8CAC583CAF0A3C8C582C8F6
:102F8800CAC583CADFE9DEE780BE90927FE06401AC
:102F9800707E90927AE0FF909280E0D39F4010E09C
:102FA80090927AF090930112170E00000000229080
:102FB800927AE0FF909280E06F7055FFFEFDFC90E2
:102FC80093011216F6D31216C540379093011216C4
:102FD800F6C3E50E9BFFE50D9AFEE50C99FDE50BA2
:102FE80098FCE47B0AFAF9F8C31216C550227B0153
:102FF8007A927981909280E0FD7C00122742123209
:10300800E922AF0EAE0DAD0CAC0B90930112170276
:103018002290913412176B909137ECF0A3EDF0A346
:1030280074FFF0A3F090913774FFF5F01215744512
:10303800F0604D909134E475F00112175412149F0A
:10304800FF909139E06FFF90913BE4F0A3EFF0908F
:10305800913BE0FEA3E02469F582748E3EF583E09F
:10306800FF90913AE06F909139F090913BE0A3E0A6
:103078002469F582748F3EF583E090913AF080A53B
:10308800909139E0FEA3E0FDEEEDFF221233CA1263
:10309800002E123400E50A30E027430F01E50A301C
:1030A800E103430F02E50A30E203430F04E50A3067
:1030B800E303430F08530AFE530AFD530AFB530A5E
:1030C800F743C901C3E50994F4E5089401400B12DC
:1030D8002BC3E4F508F509122CFE122F92121EE8F4
:1030E800E50F30E0B0530FFE530FFD530FFB530FA6
:1030F800F780A222C0E0C083C082C0D075D000C0D3
:1031080006C0079091D3E4F0C2AF309830E599F04B
:10311800909280E0C3948074809480501E9091D3E4
:10312800E0FF909280E0FE04F074812EF582E43492
:1031380092F583EFF090927F7401F0C2983099076E
:10314800C29990933BE4F0D2AFD007D006D0D0D04C
:1031580082D083D0E0321200EEE4909134F0909166
:1031680034E0FF3395E0FEC3EF9408EE648094806A
:1031780050337F0512328BD2B27F0512328B909179
:1031880035E0FF25E0F030B306E04401F080079019
:103198009135E054FEF0C2B27F0512328B90913423
:1031A800E004F080B9909135E0FF2290913AEFF079
:1031B8001200F2E4A3F090913BE0FF3395E0FEC3E8
:1031C800EF9408EE64809480503090913AE030E7B4
:1031D80004D2B38002C2B390913AE0FF25E0F07FB9
:1031E8000512328BD2B27F0512328BC2B27F051222
:1031F800328B90913BE004F080BC12324D229091CA
:1032080064EEF0A3EFF07BFF7A34791178667C9155
:103218007D017E007F04121479909164E0FEA3E0A2
:10322800EE909168F0909164A3E0909169F07B0131
:103238007A9179669091D0E4F0A37404F07F847E4B
:10324800001224D6221200EED2B37F0512328BD29E
:10325800B27F0512328BE490913CF090913CE0C330
:10326800943274809480501030B30D7F0512328BE5
:1032780090913CE004F080E3C2B27F0512328B12D9
:1032880000F22290913DEFF090913DE06026E4A39A
:10329800F090913EE0FF3395E0FEC3EF9432EE6488
:1032A8008094805007E0F0E004F080E590913DE0E4
:1032B80014F080D422909332E06025909164E4F079
:1032C800A37405F0909332E014F07B017A9179644D
:1032D8009091D0E4F0A37402F07FA07E001224D66F
:1032E80022E4909280F090927FF0FE7F80FD7B0137
:1032F8007A927981121971E490927AF0909301127E
:10330800170E000000002275F901E4F5A8F5B8F5DC
:103318009AF5A9F5B9F580F590F5A0F5B075B7500F
:10332800F5BCF5BDF5BE2243B71043C940E4909300
:103338003BF075D88075985053877F75BA0375AA86
:1033480058D29CD2AC221200F2D2B3D2B27F0F1262
:10335800328BC2B37F0F12328BC2B27F0F12328B05
:10336800221200F2C2B37F0512328BD2B27F05124D
:10337800328BC2B27F0512328B221200F2D2B37F97
:103388000512328BD2B27F0512328BC2B27F051280
:10339800328B2275F90175B70375BC03E4F5BD7569
:1033A800BE0CF580F590F5A0F5B0221200F2C2B37C
:1033B800D2B27F0F12328BD2B37F0F12328B120030
:1033C800EE22C2AF12001D12339B12002612001605
:1033D80043C902D2AF2275C870E4F5CDF5CC75CBE0
:1033E800FF75CAEF43A820D2C822438901758CBC57
:1033F800758ACDD2A9D28C221232E990927B12170B
:103408000E0000000022C2C6325A0100000000006F
:1034180000000000000000000000000000000000A4
:103428000000000000000000000000000000000094
:103438000000000000000000000000000000000084
:103448000000000000000000000000000000000074
:103458000000000000000000000000000000000064
:0F34680000000000000000000000000000000055
:00000001FF
